:1000000045C000004BC0000049C0000077C00000A0
:10001000A6C0000043C0000041C000003FC0000077
:100020003DC000003BC0000039C0000037C00000E8
:1000300035C0000033C0000031C000002FC00000F8
:100040002DC000002BC0000029C0000027C0000008
:1000500025C0000023C0000021C000001FC0000018
:100060001DC000001BC0000019C0000017C0000028
:1000700015C0000013C0000011C000000FC0000038
:100080000DC000000BC0000009C0000011241FBEFD
:10009000CFEFD0E1DEBFCDBF02D092C0B1CF8FEFA6
:1000A0008ABB83EF81BB12B88CE089BF80EA809362
:1000B0006A0078942FE382E49FE0215080409040D2
:1000C000E1F700C000008BB380958BBB0C9B0AC08E
:1000D0000D9B08C089B3882319F08FEF8BBBEACF43
:1000E0001BBAE8CF0D9B03C080EF8BBBE3CF0C9B0B
:1000F00003C08FE08BBBDECF1BBADCCF1F920F9209
:100100000FB60F9211242F933F934F935F936F93EA
:100110008F939F938FEF8BBB80E090E021E030E0E6
:100120000FC0422F40954BBB4FE352E46FE041506C
:1001300050406040E1F700C00000220F331F0196DD
:100140008830910574F39F918F916F915F914F91DA
:100150003F912F910F900FBE0F901F9018951F92F7
:100160000F920FB60F9211242F933F934F935F93EB
:100170006F938F939F938FEF8BBB80E090E020E88D
:1001800030E00FC0422F40954BBB4FE352E46FE08D
:10019000415050406040E1F700C000003595279580
:1001A00001968830910574F39F918F916F915F91C3
:1001B0004F913F912F910F900FBE0F901F90189568
:0401C000F894FFCFE1
:00000001FF
